{
  "contractName": "ManufacturerRole",
  "abi": [
    {
      "inputs": [],
      "stateMutability": "nonpayable",
      "type": "constructor"
    },
    {
      "anonymous": false,
      "inputs": [
        {
          "indexed": true,
          "internalType": "address",
          "name": "account",
          "type": "address"
        }
      ],
      "name": "ManufacturerAdded",
      "type": "event"
    },
    {
      "anonymous": false,
      "inputs": [
        {
          "indexed": true,
          "internalType": "address",
          "name": "account",
          "type": "address"
        }
      ],
      "name": "ManufacturerRemoved",
      "type": "event"
    },
    {
      "inputs": [
        {
          "internalType": "address",
          "name": "account",
          "type": "address"
        }
      ],
      "name": "isManufacturer",
      "outputs": [
        {
          "internalType": "bool",
          "name": "",
          "type": "bool"
        }
      ],
      "stateMutability": "view",
      "type": "function",
      "constant": true
    },
    {
      "inputs": [
        {
          "internalType": "address",
          "name": "account",
          "type": "address"
        }
      ],
      "name": "addManufacturer",
      "outputs": [],
      "stateMutability": "nonpayable",
      "type": "function"
    },
    {
      "inputs": [],
      "name": "renounceManufacturer",
      "outputs": [],
      "stateMutability": "nonpayable",
      "type": "function"
    }
  ],
  "bytecode": "0x608060405234801561001057600080fd5b506100203361002560201b60201c565b6101c2565b61003a60008261008060201b6100d91760201c565b8073ffffffffffffffffffffffffffffffffffffffff167f561138658ca49a8540dc70dcfe64c9026c1c5b9344642242dd6562970f9c127860405160405180910390a250565b600073ffffffffffffffffffffffffffffffffffffffff168173ffffffffffffffffffffffffffffffffffffffff16036100b957600080fd5b6100c9828261013160201b60201c565b156100d357600080fd5b60018260000160008373ffffffffffffffffffffffffffffffffffffffff1673ffffffffffffffffffffffffffffffffffffffff16815260200190815260200160002060006101000a81548160ff0219169083151502179055505050565b60008073ffffffffffffffffffffffffffffffffffffffff168273ffffffffffffffffffffffffffffffffffffffff160361016b57600080fd5b8260000160008373ffffffffffffffffffffffffffffffffffffffff1673ffffffffffffffffffffffffffffffffffffffff16815260200190815260200160002060009054906101000a900460ff16905092915050565b61045d806101d16000396000f3fe608060405234801561001057600080fd5b50600436106100415760003560e01c806317d4a491146100465780635f8a5afa14610076578063de07f34e14610092575b600080fd5b610060600480360381019061005b91906103c4565b61009c565b60405161006d919061040c565b60405180910390f35b610090600480360381019061008b91906103c4565b6100b0565b005b61009a6100ce565b005b60006100a9600083610184565b9050919050565b6100b93361009c565b6100c257600080fd5b6100cb81610215565b50565b6100d733610266565b565b600073ffffffffffffffffffffffffffffffffffffffff168173ffffffffffffffffffffffffffffffffffffffff160361011257600080fd5b61011c8282610184565b1561012657600080fd5b60018260000160008373ffffffffffffffffffffffffffffffffffffffff1673ffffffffffffffffffffffffffffffffffffffff16815260200190815260200160002060006101000a81548160ff0219169083151502179055505050565b60008073ffffffffffffffffffffffffffffffffffffffff168273ffffffffffffffffffffffffffffffffffffffff16036101be57600080fd5b8260000160008373ffffffffffffffffffffffffffffffffffffffff1673ffffffffffffffffffffffffffffffffffffffff16815260200190815260200160002060009054906101000a900460ff16905092915050565b6102206000826100d9565b8073ffffffffffffffffffffffffffffffffffffffff167f561138658ca49a8540dc70dcfe64c9026c1c5b9344642242dd6562970f9c127860405160405180910390a250565b6102716000826102b7565b8073ffffffffffffffffffffffffffffffffffffffff167f2fed5abf6a80d6dfe30b4895481b2fc5d7dce5f8f7b931832f4a2947d5040c7f60405160405180910390a250565b600073ffffffffffffffffffffffffffffffffffffffff168173ffffffffffffffffffffffffffffffffffffffff16036102f057600080fd5b6102fa8282610184565b61030357600080fd5b60008260000160008373ffffffffffffffffffffffffffffffffffffffff1673ffffffffffffffffffffffffffffffffffffffff16815260200190815260200160002060006101000a81548160ff0219169083151502179055505050565b600080fd5b600073ffffffffffffffffffffffffffffffffffffffff82169050919050565b600061039182610366565b9050919050565b6103a181610386565b81146103ac57600080fd5b50565b6000813590506103be81610398565b92915050565b6000602082840312156103da576103d9610361565b5b60006103e8848285016103af565b91505092915050565b60008115159050919050565b610406816103f1565b82525050565b600060208201905061042160008301846103fd565b9291505056fea26469706673582212209c266ecc80dfe60942eadf5da29020713e91eb56529a167ab9fb97cf136dfcd064736f6c63430008100033",
  "immutableReferences": {},
  "source": "// SPDX-License-Identifier: MIT\r\npragma solidity >=0.4.22 <0.9.0;\r\n\r\n// Import the library 'Roles'\r\nimport \"./Roles.sol\";\r\n// Define a contract 'ManufacturerRole' to manage this role - add, remove, check\r\ncontract ManufacturerRole{\r\n  using Roles for Roles.Role;\r\n\r\n  // Define 2 events, one for Adding, and other for Removing\r\n  event ManufacturerAdded(address indexed account);\r\n  event ManufacturerRemoved(address indexed account);\r\n\r\n  // Define a struct 'manufacturers' by inheriting from 'Roles' library, struct Role\r\n  Roles.Role private manufacturers;\r\n\r\n  // In the constructor make the address that deploys this contract the 1st manufacturer\r\n  constructor()  {\r\n    _addManufacturer(msg.sender);\r\n  }\r\n\r\n  // Define a modifier that checks to see if msg.sender has the appropriate role\r\n  modifier onlyManufacturer() {\r\n    require(isManufacturer(msg.sender));\r\n    _;\r\n  }\r\n\r\n  // Define a function 'isManufacturer' to check this role\r\n  function isManufacturer(address account) public view returns (bool) {\r\n    return Roles.has(manufacturers, account);\r\n  }\r\n\r\n  // Define a function 'addManufacturer' that adds this role\r\n  function addManufacturer(address account) public onlyManufacturer {\r\n    _addManufacturer(account);\r\n  }\r\n\r\n  // Define a function 'renounceManufacturer' to renounce this role\r\n  function renounceManufacturer() public {\r\n    _removeManufacturer(msg.sender);\r\n  }\r\n\r\n  // Define an internal function '_addManufacturer' to add this role, called by 'addManufacturer'\r\n  function _addManufacturer(address account) internal {\r\n    Roles.add(manufacturers, account);\r\n    emit ManufacturerAdded(account);\r\n  }\r\n\r\n  // Define an internal function '_removeManufacturer' to remove this role, called by 'removeManufacturer'\r\n  function _removeManufacturer(address account) internal {\r\n    Roles.remove(manufacturers, account);\r\n    emit ManufacturerRemoved(account);\r\n  }\r\n}",
  "sourcePath": "D:\\Amber SE\\Medical DApp\\DApp\\contracts\\medicineaccesscontrol\\ManufacturerRole.sol",
  "compiler": {
    "name": "solc",
    "version": "0.8.16+commit.07a7930e.Emscripten.clang"
  },
  "schemaVersion": "3.4.9",
  "updatedAt": "2022-08-17T14:50:51.359Z",
  "networkType": "ethereum",
  "devdoc": {
    "kind": "dev",
    "methods": {},
    "version": 1
  },
  "userdoc": {
    "kind": "user",
    "methods": {},
    "version": 1
  }
}