{
  "contractName": "PatientRole",
  "abi": [
    {
      "inputs": [],
      "stateMutability": "nonpayable",
      "type": "constructor"
    },
    {
      "anonymous": false,
      "inputs": [
        {
          "indexed": true,
          "internalType": "address",
          "name": "account",
          "type": "address"
        }
      ],
      "name": "PatientAdded",
      "type": "event"
    },
    {
      "anonymous": false,
      "inputs": [
        {
          "indexed": true,
          "internalType": "address",
          "name": "account",
          "type": "address"
        }
      ],
      "name": "PatientRemoved",
      "type": "event"
    },
    {
      "inputs": [
        {
          "internalType": "address",
          "name": "account",
          "type": "address"
        }
      ],
      "name": "isPatient",
      "outputs": [
        {
          "internalType": "bool",
          "name": "",
          "type": "bool"
        }
      ],
      "stateMutability": "view",
      "type": "function",
      "constant": true
    },
    {
      "inputs": [
        {
          "internalType": "address",
          "name": "account",
          "type": "address"
        }
      ],
      "name": "addPatient",
      "outputs": [],
      "stateMutability": "nonpayable",
      "type": "function"
    },
    {
      "inputs": [],
      "name": "renouncePatient",
      "outputs": [],
      "stateMutability": "nonpayable",
      "type": "function"
    }
  ],
  "bytecode": "0x608060405234801561001057600080fd5b506100203361002560201b60201c565b6101c2565b61003a60008261008060201b6100d91760201c565b8073ffffffffffffffffffffffffffffffffffffffff167fa58cff07db0adda3ab7a40bd2f18ab57210bf38391a52ffd2e8eee6b8bdec71a60405160405180910390a250565b600073ffffffffffffffffffffffffffffffffffffffff168173ffffffffffffffffffffffffffffffffffffffff16036100b957600080fd5b6100c9828261013160201b60201c565b156100d357600080fd5b60018260000160008373ffffffffffffffffffffffffffffffffffffffff1673ffffffffffffffffffffffffffffffffffffffff16815260200190815260200160002060006101000a81548160ff0219169083151502179055505050565b60008073ffffffffffffffffffffffffffffffffffffffff168273ffffffffffffffffffffffffffffffffffffffff160361016b57600080fd5b8260000160008373ffffffffffffffffffffffffffffffffffffffff1673ffffffffffffffffffffffffffffffffffffffff16815260200190815260200160002060009054906101000a900460ff16905092915050565b61045d806101d16000396000f3fe608060405234801561001057600080fd5b50600436106100415760003560e01c80636d263ceb1461004657806381a07c36146100625780638f9c79ed1461006c575b600080fd5b610060600480360381019061005b91906103c4565b61009c565b005b61006a6100ba565b005b610086600480360381019061008191906103c4565b6100c5565b604051610093919061040c565b60405180910390f35b6100a5336100c5565b6100ae57600080fd5b6100b781610184565b50565b6100c3336101d5565b565b60006100d2600083610226565b9050919050565b600073ffffffffffffffffffffffffffffffffffffffff168173ffffffffffffffffffffffffffffffffffffffff160361011257600080fd5b61011c8282610226565b1561012657600080fd5b60018260000160008373ffffffffffffffffffffffffffffffffffffffff1673ffffffffffffffffffffffffffffffffffffffff16815260200190815260200160002060006101000a81548160ff0219169083151502179055505050565b61018f6000826100d9565b8073ffffffffffffffffffffffffffffffffffffffff167fa58cff07db0adda3ab7a40bd2f18ab57210bf38391a52ffd2e8eee6b8bdec71a60405160405180910390a250565b6101e06000826102b7565b8073ffffffffffffffffffffffffffffffffffffffff167f053a4badf166f01c4b02f6bcb71d2d67734470d0866282e291e73001aa25c76960405160405180910390a250565b60008073ffffffffffffffffffffffffffffffffffffffff168273ffffffffffffffffffffffffffffffffffffffff160361026057600080fd5b8260000160008373ffffffffffffffffffffffffffffffffffffffff1673ffffffffffffffffffffffffffffffffffffffff16815260200190815260200160002060009054906101000a900460ff16905092915050565b600073ffffffffffffffffffffffffffffffffffffffff168173ffffffffffffffffffffffffffffffffffffffff16036102f057600080fd5b6102fa8282610226565b61030357600080fd5b60008260000160008373ffffffffffffffffffffffffffffffffffffffff1673ffffffffffffffffffffffffffffffffffffffff16815260200190815260200160002060006101000a81548160ff0219169083151502179055505050565b600080fd5b600073ffffffffffffffffffffffffffffffffffffffff82169050919050565b600061039182610366565b9050919050565b6103a181610386565b81146103ac57600080fd5b50565b6000813590506103be81610398565b92915050565b6000602082840312156103da576103d9610361565b5b60006103e8848285016103af565b91505092915050565b60008115159050919050565b610406816103f1565b82525050565b600060208201905061042160008301846103fd565b9291505056fea26469706673582212201fc137f361a4f852fbbc8717a52d4bd2328bee5d74fcc1b3a187bdf46c1eeb0c64736f6c63430008100033",
  "immutableReferences": {},
  "source": "// SPDX-License-Identifier: MIT\r\npragma solidity >=0.4.22 <0.9.0;\r\n\r\n// Import the library 'Roles'\r\nimport \"./Roles.sol\";\r\n// Define a contract 'PatientRole' to manage this role - add, remove, check\r\ncontract PatientRole {\r\n  using Roles for Roles.Role;\r\n\r\n  // Define 2 events, one for Adding, and other for Removing\r\n  event PatientAdded(address indexed account);\r\n  event PatientRemoved(address indexed account);\r\n\r\n  // Define a struct 'patients' by inheriting from 'Roles' library, struct Role\r\n  Roles.Role private patients;\r\n\r\n  // In the constructor make the address that deploys this contract the 1st patient\r\n  constructor()  {\r\n    _addPatient(msg.sender);\r\n  }\r\n\r\n  // Define a modifier that checks to see if msg.sender has the appropriate role\r\n  modifier onlyPatient() {\r\n    require(isPatient(msg.sender));\r\n    _;\r\n  }\r\n\r\n  // Define a function 'isPatient' to check this role\r\n  function isPatient(address account) public view returns (bool) {\r\n    return Roles.has(patients, account);\r\n  }\r\n\r\n  // Define a function 'addPatient' that adds this role\r\n  function addPatient(address account) public onlyPatient {\r\n    _addPatient(account);\r\n  }\r\n\r\n  // Define a function 'renouncePatient' to renounce this role\r\n  function renouncePatient() public {\r\n    _removePatient(msg.sender);\r\n  }\r\n\r\n  // Define an internal function '_addPatient' to add this role, called by 'addPatient'\r\n  function _addPatient(address account) internal {\r\n    Roles.add(patients, account);\r\n    emit PatientAdded(account);\r\n  }\r\n\r\n  // Define an internal function '_removePatient' to remove this role, called by 'removePatient'\r\n  function _removePatient(address account) internal {\r\n    Roles.remove(patients, account);\r\n    emit PatientRemoved(account);\r\n  }\r\n}\r\n",
  "sourcePath": "D:\\Amber SE\\Medical DApp\\DApp\\contracts\\medicineaccesscontrol\\PatientRole.sol",
  "compiler": {
    "name": "solc",
    "version": "0.8.16+commit.07a7930e.Emscripten.clang"
  },
  "schemaVersion": "3.4.9",
  "updatedAt": "2022-08-17T14:50:51.374Z",
  "networkType": "ethereum",
  "devdoc": {
    "kind": "dev",
    "methods": {},
    "version": 1
  },
  "userdoc": {
    "kind": "user",
    "methods": {},
    "version": 1
  }
}