{
  "contractName": "PharmacistRole",
  "abi": [
    {
      "inputs": [],
      "stateMutability": "nonpayable",
      "type": "constructor"
    },
    {
      "anonymous": false,
      "inputs": [
        {
          "indexed": true,
          "internalType": "address",
          "name": "account",
          "type": "address"
        }
      ],
      "name": "PharmacistAdded",
      "type": "event"
    },
    {
      "anonymous": false,
      "inputs": [
        {
          "indexed": true,
          "internalType": "address",
          "name": "account",
          "type": "address"
        }
      ],
      "name": "PharmacistRemoved",
      "type": "event"
    },
    {
      "inputs": [
        {
          "internalType": "address",
          "name": "account",
          "type": "address"
        }
      ],
      "name": "isPharmacist",
      "outputs": [
        {
          "internalType": "bool",
          "name": "",
          "type": "bool"
        }
      ],
      "stateMutability": "view",
      "type": "function",
      "constant": true
    },
    {
      "inputs": [
        {
          "internalType": "address",
          "name": "account",
          "type": "address"
        }
      ],
      "name": "addPharmacist",
      "outputs": [],
      "stateMutability": "nonpayable",
      "type": "function"
    },
    {
      "inputs": [],
      "name": "renouncePharmacist",
      "outputs": [],
      "stateMutability": "nonpayable",
      "type": "function"
    }
  ],
  "bytecode": "0x608060405234801561001057600080fd5b506100203361002560201b60201c565b6101c2565b61003a60008261008060201b6100d91760201c565b8073ffffffffffffffffffffffffffffffffffffffff167f5a4264410853372bdd7255ebc9624cb523fc039cd6f9f1855165194738125f6360405160405180910390a250565b600073ffffffffffffffffffffffffffffffffffffffff168173ffffffffffffffffffffffffffffffffffffffff16036100b957600080fd5b6100c9828261013160201b60201c565b156100d357600080fd5b60018260000160008373ffffffffffffffffffffffffffffffffffffffff1673ffffffffffffffffffffffffffffffffffffffff16815260200190815260200160002060006101000a81548160ff0219169083151502179055505050565b60008073ffffffffffffffffffffffffffffffffffffffff168273ffffffffffffffffffffffffffffffffffffffff160361016b57600080fd5b8260000160008373ffffffffffffffffffffffffffffffffffffffff1673ffffffffffffffffffffffffffffffffffffffff16815260200190815260200160002060009054906101000a900460ff16905092915050565b61045d806101d16000396000f3fe608060405234801561001057600080fd5b50600436106100415760003560e01c80635ae632471461004657806382946ee214610050578063c09e269314610080575b600080fd5b61004e61009c565b005b61006a600480360381019061006591906103c4565b6100a7565b604051610077919061040c565b60405180910390f35b61009a600480360381019061009591906103c4565b6100bb565b005b6100a533610184565b565b60006100b46000836101d5565b9050919050565b6100c4336100a7565b6100cd57600080fd5b6100d681610266565b50565b600073ffffffffffffffffffffffffffffffffffffffff168173ffffffffffffffffffffffffffffffffffffffff160361011257600080fd5b61011c82826101d5565b1561012657600080fd5b60018260000160008373ffffffffffffffffffffffffffffffffffffffff1673ffffffffffffffffffffffffffffffffffffffff16815260200190815260200160002060006101000a81548160ff0219169083151502179055505050565b61018f6000826102b7565b8073ffffffffffffffffffffffffffffffffffffffff167f9d17ec7e57a5118cf27abf33370bcc6f007c27a9706ab4cc473a76fe552447d260405160405180910390a250565b60008073ffffffffffffffffffffffffffffffffffffffff168273ffffffffffffffffffffffffffffffffffffffff160361020f57600080fd5b8260000160008373ffffffffffffffffffffffffffffffffffffffff1673ffffffffffffffffffffffffffffffffffffffff16815260200190815260200160002060009054906101000a900460ff16905092915050565b6102716000826100d9565b8073ffffffffffffffffffffffffffffffffffffffff167f5a4264410853372bdd7255ebc9624cb523fc039cd6f9f1855165194738125f6360405160405180910390a250565b600073ffffffffffffffffffffffffffffffffffffffff168173ffffffffffffffffffffffffffffffffffffffff16036102f057600080fd5b6102fa82826101d5565b61030357600080fd5b60008260000160008373ffffffffffffffffffffffffffffffffffffffff1673ffffffffffffffffffffffffffffffffffffffff16815260200190815260200160002060006101000a81548160ff0219169083151502179055505050565b600080fd5b600073ffffffffffffffffffffffffffffffffffffffff82169050919050565b600061039182610366565b9050919050565b6103a181610386565b81146103ac57600080fd5b50565b6000813590506103be81610398565b92915050565b6000602082840312156103da576103d9610361565b5b60006103e8848285016103af565b91505092915050565b60008115159050919050565b610406816103f1565b82525050565b600060208201905061042160008301846103fd565b9291505056fea264697066735822122051befa9c342f6e5365bbad672e126f465e3e73dbdbc69bca46ef9dfa2a111a9a64736f6c63430008100033",
  "immutableReferences": {},
  "source": "// SPDX-License-Identifier: MIT\r\npragma solidity >=0.4.22 <0.9.0;\r\n\r\n// Import the library 'Roles'\r\nimport \"./Roles.sol\";\r\n// Define a contract 'PharmacistRole' to manage this role - add, remove, check\r\ncontract PharmacistRole {\r\n  using Roles for Roles.Role;\r\n\r\n  // Define 2 events, one for Adding, and other for Removing\r\n  event PharmacistAdded(address indexed account);\r\n  event PharmacistRemoved(address indexed account);\r\n\r\n  // Define a struct 'pharmacists' by inheriting from 'Roles' library, struct Role\r\n  Roles.Role private pharmacists;\r\n  // In the constructor make the address that deploys this contract the 1st pharmacist\r\n  constructor()  {\r\n    _addPharmacist(msg.sender);\r\n  }\r\n\r\n  // Define a modifier that checks to see if msg.sender has the appropriate role\r\n  modifier onlyPharmacist() {\r\n    require(isPharmacist(msg.sender));\r\n    _;\r\n  }\r\n\r\n  // Define a function 'isPharmacist' to check this role\r\n  function isPharmacist(address account) public view returns (bool) {\r\n    return Roles.has(pharmacists, account);\r\n  }\r\n\r\n  // Define a function 'addPharmacist' that adds this role\r\n  function addPharmacist(address account) public onlyPharmacist {\r\n    _addPharmacist(account);\r\n  }\r\n\r\n  // Define a function 'renouncePharmacist' to renounce this role\r\n  function renouncePharmacist() public {\r\n    _removePharmacist(msg.sender);\r\n  }\r\n\r\n  // Define an internal function '_addPharmacist' to add this role, called by 'addPharmacist'\r\n  function _addPharmacist(address account) internal {\r\n    Roles.add(pharmacists, account);\r\n    emit PharmacistAdded(account);\r\n  }\r\n\r\n  // Define an internal function '_removePharmacist' to remove this role, called by 'removePharmacist'\r\n  function _removePharmacist(address account) internal {\r\n    Roles.remove(pharmacists, account);\r\n    emit PharmacistRemoved(account);\r\n  }\r\n}",
  "sourcePath": "D:\\Amber SE\\Medical DApp\\DApp\\contracts\\medicineaccesscontrol\\PharmacistRole.sol",
  "compiler": {
    "name": "solc",
    "version": "0.8.16+commit.07a7930e.Emscripten.clang"
  },
  "schemaVersion": "3.4.9",
  "updatedAt": "2022-08-17T14:50:51.370Z",
  "networkType": "ethereum",
  "devdoc": {
    "kind": "dev",
    "methods": {},
    "version": 1
  },
  "userdoc": {
    "kind": "user",
    "methods": {},
    "version": 1
  }
}