{
  "contractName": "SupplyChain",
  "abi": [
    {
      "inputs": [],
      "stateMutability": "payable",
      "type": "constructor",
      "payable": true
    },
    {
      "anonymous": false,
      "inputs": [
        {
          "indexed": true,
          "internalType": "address",
          "name": "account",
          "type": "address"
        }
      ],
      "name": "DistributorAdded",
      "type": "event"
    },
    {
      "anonymous": false,
      "inputs": [
        {
          "indexed": true,
          "internalType": "address",
          "name": "account",
          "type": "address"
        }
      ],
      "name": "DistributorRemoved",
      "type": "event"
    },
    {
      "anonymous": false,
      "inputs": [
        {
          "indexed": false,
          "internalType": "uint256",
          "name": "upc",
          "type": "uint256"
        }
      ],
      "name": "ForSale",
      "type": "event"
    },
    {
      "anonymous": false,
      "inputs": [
        {
          "indexed": false,
          "internalType": "uint256",
          "name": "upc",
          "type": "uint256"
        }
      ],
      "name": "Made",
      "type": "event"
    },
    {
      "anonymous": false,
      "inputs": [
        {
          "indexed": true,
          "internalType": "address",
          "name": "account",
          "type": "address"
        }
      ],
      "name": "ManufacturerAdded",
      "type": "event"
    },
    {
      "anonymous": false,
      "inputs": [
        {
          "indexed": true,
          "internalType": "address",
          "name": "account",
          "type": "address"
        }
      ],
      "name": "ManufacturerRemoved",
      "type": "event"
    },
    {
      "anonymous": false,
      "inputs": [
        {
          "indexed": false,
          "internalType": "uint256",
          "name": "upc",
          "type": "uint256"
        }
      ],
      "name": "Packed",
      "type": "event"
    },
    {
      "anonymous": false,
      "inputs": [
        {
          "indexed": true,
          "internalType": "address",
          "name": "account",
          "type": "address"
        }
      ],
      "name": "PatientAdded",
      "type": "event"
    },
    {
      "anonymous": false,
      "inputs": [
        {
          "indexed": true,
          "internalType": "address",
          "name": "account",
          "type": "address"
        }
      ],
      "name": "PatientRemoved",
      "type": "event"
    },
    {
      "anonymous": false,
      "inputs": [
        {
          "indexed": true,
          "internalType": "address",
          "name": "account",
          "type": "address"
        }
      ],
      "name": "PharmacistAdded",
      "type": "event"
    },
    {
      "anonymous": false,
      "inputs": [
        {
          "indexed": true,
          "internalType": "address",
          "name": "account",
          "type": "address"
        }
      ],
      "name": "PharmacistRemoved",
      "type": "event"
    },
    {
      "anonymous": false,
      "inputs": [
        {
          "indexed": false,
          "internalType": "uint256",
          "name": "upc",
          "type": "uint256"
        }
      ],
      "name": "Purchased",
      "type": "event"
    },
    {
      "anonymous": false,
      "inputs": [
        {
          "indexed": false,
          "internalType": "uint256",
          "name": "upc",
          "type": "uint256"
        }
      ],
      "name": "Received",
      "type": "event"
    },
    {
      "anonymous": false,
      "inputs": [
        {
          "indexed": false,
          "internalType": "uint256",
          "name": "upc",
          "type": "uint256"
        }
      ],
      "name": "Shipped",
      "type": "event"
    },
    {
      "anonymous": false,
      "inputs": [
        {
          "indexed": false,
          "internalType": "uint256",
          "name": "upc",
          "type": "uint256"
        }
      ],
      "name": "Sold",
      "type": "event"
    },
    {
      "inputs": [
        {
          "internalType": "address",
          "name": "account",
          "type": "address"
        }
      ],
      "name": "addDistributor",
      "outputs": [],
      "stateMutability": "nonpayable",
      "type": "function"
    },
    {
      "inputs": [
        {
          "internalType": "address",
          "name": "account",
          "type": "address"
        }
      ],
      "name": "addManufacturer",
      "outputs": [],
      "stateMutability": "nonpayable",
      "type": "function"
    },
    {
      "inputs": [
        {
          "internalType": "address",
          "name": "account",
          "type": "address"
        }
      ],
      "name": "addPatient",
      "outputs": [],
      "stateMutability": "nonpayable",
      "type": "function"
    },
    {
      "inputs": [
        {
          "internalType": "address",
          "name": "account",
          "type": "address"
        }
      ],
      "name": "addPharmacist",
      "outputs": [],
      "stateMutability": "nonpayable",
      "type": "function"
    },
    {
      "inputs": [
        {
          "internalType": "address",
          "name": "account",
          "type": "address"
        }
      ],
      "name": "isDistributor",
      "outputs": [
        {
          "internalType": "bool",
          "name": "",
          "type": "bool"
        }
      ],
      "stateMutability": "view",
      "type": "function",
      "constant": true
    },
    {
      "inputs": [
        {
          "internalType": "address",
          "name": "account",
          "type": "address"
        }
      ],
      "name": "isManufacturer",
      "outputs": [
        {
          "internalType": "bool",
          "name": "",
          "type": "bool"
        }
      ],
      "stateMutability": "view",
      "type": "function",
      "constant": true
    },
    {
      "inputs": [
        {
          "internalType": "address",
          "name": "account",
          "type": "address"
        }
      ],
      "name": "isPatient",
      "outputs": [
        {
          "internalType": "bool",
          "name": "",
          "type": "bool"
        }
      ],
      "stateMutability": "view",
      "type": "function",
      "constant": true
    },
    {
      "inputs": [
        {
          "internalType": "address",
          "name": "account",
          "type": "address"
        }
      ],
      "name": "isPharmacist",
      "outputs": [
        {
          "internalType": "bool",
          "name": "",
          "type": "bool"
        }
      ],
      "stateMutability": "view",
      "type": "function",
      "constant": true
    },
    {
      "inputs": [],
      "name": "renounceDistributor",
      "outputs": [],
      "stateMutability": "nonpayable",
      "type": "function"
    },
    {
      "inputs": [],
      "name": "renounceManufacturer",
      "outputs": [],
      "stateMutability": "nonpayable",
      "type": "function"
    },
    {
      "inputs": [],
      "name": "renouncePatient",
      "outputs": [],
      "stateMutability": "nonpayable",
      "type": "function"
    },
    {
      "inputs": [],
      "name": "renouncePharmacist",
      "outputs": [],
      "stateMutability": "nonpayable",
      "type": "function"
    },
    {
      "inputs": [],
      "name": "kill",
      "outputs": [],
      "stateMutability": "nonpayable",
      "type": "function"
    },
    {
      "inputs": [
        {
          "internalType": "uint256",
          "name": "_upc",
          "type": "uint256"
        },
        {
          "internalType": "address",
          "name": "_originManufacturerID",
          "type": "address"
        },
        {
          "internalType": "string",
          "name": "_originFactoryName",
          "type": "string"
        },
        {
          "internalType": "string",
          "name": "_originFactoryInformation",
          "type": "string"
        },
        {
          "internalType": "string",
          "name": "_originFactoryLatitude",
          "type": "string"
        },
        {
          "internalType": "string",
          "name": "_originFactoryLongitude",
          "type": "string"
        },
        {
          "internalType": "string",
          "name": "_medicineNotes",
          "type": "string"
        }
      ],
      "name": "makeMedicine",
      "outputs": [],
      "stateMutability": "nonpayable",
      "type": "function"
    },
    {
      "inputs": [
        {
          "internalType": "uint256",
          "name": "_upc",
          "type": "uint256"
        }
      ],
      "name": "packMedicine",
      "outputs": [],
      "stateMutability": "nonpayable",
      "type": "function"
    },
    {
      "inputs": [
        {
          "internalType": "uint256",
          "name": "_upc",
          "type": "uint256"
        },
        {
          "internalType": "uint256",
          "name": "_price",
          "type": "uint256"
        }
      ],
      "name": "sellMedicine",
      "outputs": [],
      "stateMutability": "nonpayable",
      "type": "function"
    },
    {
      "inputs": [
        {
          "internalType": "uint256",
          "name": "_upc",
          "type": "uint256"
        }
      ],
      "name": "buyMedicine",
      "outputs": [],
      "stateMutability": "payable",
      "type": "function",
      "payable": true
    },
    {
      "inputs": [
        {
          "internalType": "uint256",
          "name": "_upc",
          "type": "uint256"
        }
      ],
      "name": "shipMedicine",
      "outputs": [],
      "stateMutability": "nonpayable",
      "type": "function"
    },
    {
      "inputs": [
        {
          "internalType": "uint256",
          "name": "_upc",
          "type": "uint256"
        }
      ],
      "name": "receiveMedicine",
      "outputs": [],
      "stateMutability": "nonpayable",
      "type": "function"
    },
    {
      "inputs": [
        {
          "internalType": "uint256",
          "name": "_upc",
          "type": "uint256"
        }
      ],
      "name": "purchaseMedicine",
      "outputs": [],
      "stateMutability": "nonpayable",
      "type": "function"
    },
    {
      "inputs": [
        {
          "internalType": "uint256",
          "name": "_upc",
          "type": "uint256"
        }
      ],
      "name": "fetchMedicineBufferOne",
      "outputs": [
        {
          "internalType": "uint256",
          "name": "medicineSKU",
          "type": "uint256"
        },
        {
          "internalType": "uint256",
          "name": "medicineUPC",
          "type": "uint256"
        },
        {
          "internalType": "address",
          "name": "ownerID",
          "type": "address"
        },
        {
          "internalType": "address",
          "name": "originManufacturerID",
          "type": "address"
        },
        {
          "internalType": "string",
          "name": "originFactoryName",
          "type": "string"
        },
        {
          "internalType": "string",
          "name": "originFactoryInformation",
          "type": "string"
        },
        {
          "internalType": "string",
          "name": "originFactoryLatitude",
          "type": "string"
        }
      ],
      "stateMutability": "view",
      "type": "function",
      "constant": true
    },
    {
      "inputs": [
        {
          "internalType": "uint256",
          "name": "_upc",
          "type": "uint256"
        }
      ],
      "name": "fetchMedicineBufferTwo",
      "outputs": [
        {
          "internalType": "string",
          "name": "originFactoryLongitude",
          "type": "string"
        },
        {
          "internalType": "string",
          "name": "medicineNotes",
          "type": "string"
        },
        {
          "internalType": "uint256",
          "name": "medicinePrice",
          "type": "uint256"
        },
        {
          "internalType": "enum SupplyChain.State",
          "name": "medicineState",
          "type": "uint8"
        },
        {
          "internalType": "address",
          "name": "distributorID",
          "type": "address"
        },
        {
          "internalType": "address",
          "name": "pharmacistID",
          "type": "address"
        },
        {
          "internalType": "address",
          "name": "patientID",
          "type": "address"
        }
      ],
      "stateMutability": "view",
      "type": "function",
      "constant": true
    },
    {
      "inputs": [
        {
          "internalType": "uint256",
          "name": "_upc",
          "type": "uint256"
        }
      ],
      "name": "fetchMedicineBufferThree",
      "outputs": [
        {
          "internalType": "uint256",
          "name": "medicineSKU",
          "type": "uint256"
        },
        {
          "internalType": "uint256",
          "name": "medicineUPC",
          "type": "uint256"
        },
        {
          "internalType": "uint256",
          "name": "medicineID",
          "type": "uint256"
        }
      ],
      "stateMutability": "view",
      "type": "function",
      "constant": true
    }
  ],
  "bytecode": "0x608060405262000015336200009f60201b60201c565b6200002633620000fd60201b60201c565b62000037336200015b60201b60201c565b6200004833620001b960201b60201c565b33600460006101000a81548173ffffffffffffffffffffffffffffffffffffffff021916908373ffffffffffffffffffffffffffffffffffffffff160217905550600060068190555060006005819055506200035e565b620000b76000826200021760201b620017401760201c565b8073ffffffffffffffffffffffffffffffffffffffff167f5a4264410853372bdd7255ebc9624cb523fc039cd6f9f1855165194738125f6360405160405180910390a250565b620001156001826200021760201b620017401760201c565b8073ffffffffffffffffffffffffffffffffffffffff167fa58cff07db0adda3ab7a40bd2f18ab57210bf38391a52ffd2e8eee6b8bdec71a60405160405180910390a250565b620001736002826200021760201b620017401760201c565b8073ffffffffffffffffffffffffffffffffffffffff167f561138658ca49a8540dc70dcfe64c9026c1c5b9344642242dd6562970f9c127860405160405180910390a250565b620001d16003826200021760201b620017401760201c565b8073ffffffffffffffffffffffffffffffffffffffff167fddbf200aa634dc3fb81cfd68583dd1040d1c751d335e1d86b631bde3e977fea860405160405180910390a250565b600073ffffffffffffffffffffffffffffffffffffffff168173ffffffffffffffffffffffffffffffffffffffff16036200025157600080fd5b620002638282620002cc60201b60201c565b156200026e57600080fd5b60018260000160008373ffffffffffffffffffffffffffffffffffffffff1673ffffffffffffffffffffffffffffffffffffffff16815260200190815260200160002060006101000a81548160ff0219169083151502179055505050565b60008073ffffffffffffffffffffffffffffffffffffffff168273ffffffffffffffffffffffffffffffffffffffff16036200030757600080fd5b8260000160008373ffffffffffffffffffffffffffffffffffffffff1673ffffffffffffffffffffffffffffffffffffffff16815260200190815260200160002060009054906101000a900460ff16905092915050565b61263e806200036e6000396000f3fe6080604052600436106101405760003560e01c80636d263ceb116100b65780638f9c79ed1161006f5780638f9c79ed1461043c578063ab77f95914610479578063c09e2693146104a2578063c6d41453146104cb578063de07f34e146104f4578063faac9e791461050b57610140565b80636d263ceb146103305780637250e2241461035957806372cf2f241461038257806381a07c36146103ab57806382946ee2146103c25780638f0c86fa146103ff57610140565b80633b7e1e86116101085780633b7e1e86146102705780633fe7cff71461029957806341c0e1b5146102c25780635ae63247146102d95780635f8a5afa146102f0578063644241db1461031957610140565b80630f9a1210146101455780631474b95d1461018857806317d4a491146101b15780632bc3f465146101ee5780633800765f1461022d575b600080fd5b34801561015157600080fd5b5061016c60048036038101906101679190611bf8565b610527565b60405161017f9796959493929190611d7c565b60405180910390f35b34801561019457600080fd5b506101af60048036038101906101aa9190611df9565b61076f565b005b3480156101bd57600080fd5b506101d860048036038101906101d39190611e65565b61086c565b6040516101e59190611ead565b60405180910390f35b3480156101fa57600080fd5b5061021560048036038101906102109190611bf8565b610880565b60405161022493929190611ec8565b60405180910390f35b34801561023957600080fd5b50610254600480360381019061024f9190611bf8565b6108d7565b6040516102679796959493929190611eff565b60405180910390f35b34801561027c57600080fd5b5061029760048036038101906102929190611bf8565b610b7d565b005b3480156102a557600080fd5b506102c060048036038101906102bb9190611bf8565b610c5e565b005b3480156102ce57600080fd5b506102d7610d2d565b005b3480156102e557600080fd5b506102ee610dbf565b005b3480156102fc57600080fd5b5061031760048036038101906103129190611e65565b610dca565b005b34801561032557600080fd5b5061032e610de8565b005b34801561033c57600080fd5b5061035760048036038101906103529190611e65565b610df3565b005b34801561036557600080fd5b50610380600480360381019061037b9190611e65565b610e11565b005b34801561038e57600080fd5b506103a960048036038101906103a49190611bf8565b610e2f565b005b3480156103b757600080fd5b506103c0610f10565b005b3480156103ce57600080fd5b506103e960048036038101906103e49190611e65565b610f1b565b6040516103f69190611ead565b60405180910390f35b34801561040b57600080fd5b5061042660048036038101906104219190611e65565b610f2f565b6040516104339190611ead565b60405180910390f35b34801561044857600080fd5b50610463600480360381019061045e9190611e65565b610f43565b6040516104709190611ead565b60405180910390f35b34801561048557600080fd5b506104a0600480360381019061049b91906120b8565b610f57565b005b3480156104ae57600080fd5b506104c960048036038101906104c49190611e65565b61134d565b005b3480156104d757600080fd5b506104f260048036038101906104ed9190611bf8565b61136b565b005b34801561050057600080fd5b506105096114f0565b005b61052560048036038101906105209190611bf8565b6114fb565b005b606080600080600080600060076000898152602001908152602001600020600701600760008a8152602001908152602001600020600901600760008b8152602001908152602001600020600a0154600760008c8152602001908152602001600020600b0160009054906101000a900460ff16600760008d8152602001908152602001600020600b0160019054906101000a900473ffffffffffffffffffffffffffffffffffffffff16600760008e8152602001908152602001600020600c0160009054906101000a900473ffffffffffffffffffffffffffffffffffffffff16600760008f8152602001908152602001600020600d0160009054906101000a900473ffffffffffffffffffffffffffffffffffffffff1686805461064a90612215565b80601f016020809104026020016040519081016040528092919081815260200182805461067690612215565b80156106c35780601f10610698576101008083540402835291602001916106c3565b820191906000526020600020905b8154815290600101906020018083116106a657829003601f168201915b505050505096508580546106d690612215565b80601f016020809104026020016040519081016040528092919081815260200182805461070290612215565b801561074f5780601f106107245761010080835404028352916020019161074f565b820191906000526020600020905b81548152906001019060200180831161073257829003601f168201915b505050505095509650965096509650965096509650919395979092949650565b816001600681111561078457610783611cc4565b5b60076000838152602001908152602001600020600b0160009054906101000a900460ff1660068111156107ba576107b9611cc4565b5b146107c457600080fd5b6107cd3361086c565b6107d657600080fd5b600260076000858152602001908152602001600020600b0160006101000a81548160ff021916908360068111156108105761080f611cc4565b5b02179055508160076000858152602001908152602001600020600a01819055507fa96ae0fc3224ebd79eebfe54bd130cc9cb94416cddd1f2386115e00b725324688360405161085f9190612246565b60405180910390a1505050565b60006108796002836117eb565b9050919050565b60008060006007600085815260200190815260200160002060000154600760008681526020019081526020016000206001015460076000878152602001908152602001600020600801549250925092509193909250565b60008060008060608060606007600089815260200190815260200160002060000154600760008a815260200190815260200160002060010154600760008b815260200190815260200160002060020160009054906101000a900473ffffffffffffffffffffffffffffffffffffffff16600760008c815260200190815260200160002060030160009054906101000a900473ffffffffffffffffffffffffffffffffffffffff16600760008d8152602001908152602001600020600401600760008e8152602001908152602001600020600501600760008f81526020019081526020016000206006018280546109cc90612215565b80601f01602080910402602001604051908101604052809291908181526020018280546109f890612215565b8015610a455780601f10610a1a57610100808354040283529160200191610a45565b820191906000526020600020905b815481529060010190602001808311610a2857829003601f168201915b50505050509250818054610a5890612215565b80601f0160208091040260200160405190810160405280929190818152602001828054610a8490612215565b8015610ad15780601f10610aa657610100808354040283529160200191610ad1565b820191906000526020600020905b815481529060010190602001808311610ab457829003601f168201915b50505050509150808054610ae490612215565b80601f0160208091040260200160405190810160405280929190818152602001828054610b1090612215565b8015610b5d5780601f10610b3257610100808354040283529160200191610b5d565b820191906000526020600020905b815481529060010190602001808311610b4057829003601f168201915b505050505090509650965096509650965096509650919395979092949650565b8060006006811115610b9257610b91611cc4565b5b60076000838152602001908152602001600020600b0160009054906101000a900460ff166006811115610bc857610bc7611cc4565b5b14610bd257600080fd5b610bdb3361086c565b610be457600080fd5b600160076000848152602001908152602001600020600b0160006101000a81548160ff02191690836006811115610c1e57610c1d611cc4565b5b02179055507f9b3b66e2380b690bae22c73ef1428fb0c91e72fe14a4b6defa13035214187aff82604051610c529190612246565b60405180910390a15050565b8060046006811115610c7357610c72611cc4565b5b60076000838152602001908152602001600020600b0160009054906101000a900460ff166006811115610ca957610ca8611cc4565b5b14610cb357600080fd5b600560076000848152602001908152602001600020600b0160006101000a81548160ff02191690836006811115610ced57610cec611cc4565b5b02179055507fa8142743f8f70a4c26f3691cf4ed59718381fb2f18070ec52be1f1022d85555782604051610d219190612246565b60405180910390a15050565b600460009054906101000a900473ffffffffffffffffffffffffffffffffffffffff1673ffffffffffffffffffffffffffffffffffffffff163373ffffffffffffffffffffffffffffffffffffffff1603610dbd57600460009054906101000a900473ffffffffffffffffffffffffffffffffffffffff1673ffffffffffffffffffffffffffffffffffffffff16ff5b565b610dc83361187c565b565b610dd33361086c565b610ddc57600080fd5b610de5816118cd565b50565b610df13361191e565b565b610dfc33610f43565b610e0557600080fd5b610e0e8161196f565b50565b610e1a33610f2f565b610e2357600080fd5b610e2c816119c0565b50565b8060056006811115610e4457610e43611cc4565b5b60076000838152602001908152602001600020600b0160009054906101000a900460ff166006811115610e7a57610e79611cc4565b5b14610e8457600080fd5b610e8d33610f43565b610e9657600080fd5b600660076000848152602001908152602001600020600b0160006101000a81548160ff02191690836006811115610ed057610ecf611cc4565b5b02179055507f653d56639fee6b566a5c804764e9689de38645f0b733df89a36a1b7b42173dd882604051610f049190612246565b60405180910390a15050565b610f1933611a11565b565b6000610f286000836117eb565b9050919050565b6000610f3c6003836117eb565b9050919050565b6000610f506001836117eb565b9050919050565b610f603361086c565b610f6957600080fd5b6000604051806101e001604052806001600654610f869190612290565b81526020018981526020018873ffffffffffffffffffffffffffffffffffffffff1681526020018873ffffffffffffffffffffffffffffffffffffffff16815260200187815260200186815260200185815260200184815260200189600654610fef9190612290565b8152602001838152602001600081526020016000600681111561101557611014611cc4565b5b8152602001600073ffffffffffffffffffffffffffffffffffffffff168152602001600073ffffffffffffffffffffffffffffffffffffffff168152602001600073ffffffffffffffffffffffffffffffffffffffff16815250905080600760008a8152602001908152602001600020600082015181600001556020820151816001015560408201518160020160006101000a81548173ffffffffffffffffffffffffffffffffffffffff021916908373ffffffffffffffffffffffffffffffffffffffff16021790555060608201518160030160006101000a81548173ffffffffffffffffffffffffffffffffffffffff021916908373ffffffffffffffffffffffffffffffffffffffff160217905550608082015181600401908161113c9190612470565b5060a08201518160050190816111529190612470565b5060c08201518160060190816111689190612470565b5060e082015181600701908161117e9190612470565b5061010082015181600801556101208201518160090190816111a09190612470565b5061014082015181600a015561016082015181600b0160006101000a81548160ff021916908360068111156111d8576111d7611cc4565b5b021790555061018082015181600b0160016101000a81548173ffffffffffffffffffffffffffffffffffffffff021916908373ffffffffffffffffffffffffffffffffffffffff1602179055506101a082015181600c0160006101000a81548173ffffffffffffffffffffffffffffffffffffffff021916908373ffffffffffffffffffffffffffffffffffffffff1602179055506101c082015181600d0160006101000a81548173ffffffffffffffffffffffffffffffffffffffff021916908373ffffffffffffffffffffffffffffffffffffffff1602179055509050506000600760008a8152602001908152602001600020600b0160006101000a81548160ff021916908360068111156112f2576112f1611cc4565b5b021790555060016006546113069190612290565b6006819055507feb8109592a383473c76afa62041a6dbabac0ca80d859bbdffb13c5a70c454b908860405161133b9190612246565b60405180910390a15050505050505050565b61135633610f1b565b61135f57600080fd5b61136881611a62565b50565b80600360068111156113805761137f611cc4565b5b60076000838152602001908152602001600020600b0160009054906101000a900460ff1660068111156113b6576113b5611cc4565b5b146113c057600080fd5b6113c93361086c565b6113d257600080fd5b3373ffffffffffffffffffffffffffffffffffffffff166007600084815260200190815260200160002060030160009054906101000a900473ffffffffffffffffffffffffffffffffffffffff1673ffffffffffffffffffffffffffffffffffffffff1614611476576040517f08c379a000000000000000000000000000000000000000000000000000000000815260040161146d906125b4565b60405180910390fd5b600460076000848152602001908152602001600020600b0160006101000a81548160ff021916908360068111156114b0576114af611cc4565b5b02179055507ff00b9a5725b80c54016f42114f6ed7792d22eecb116011c4afac29c57bef6c95826040516114e49190612246565b60405180910390a15050565b6114f933611ab3565b565b80600260068111156115105761150f611cc4565b5b60076000838152602001908152602001600020600b0160009054906101000a900460ff16600681111561154657611545611cc4565b5b1461155057600080fd5b60076000838152602001908152602001600020600a01548034101561157457600080fd5b8261157e33610f2f565b61158757600080fd5b600360076000868152602001908152602001600020600b0160006101000a81548160ff021916908360068111156115c1576115c0611cc4565b5b02179055506007600085815260200190815260200160002060030160009054906101000a900473ffffffffffffffffffffffffffffffffffffffff1673ffffffffffffffffffffffffffffffffffffffff166108fc60076000878152602001908152602001600020600a01549081150290604051600060405180830381858888f19350505050158015611658573d6000803e3d6000fd5b507f92f64ca637d023f354075a4be751b169c1a8a9ccb6d33cdd0cb3520543995727846040516116889190612246565b60405180910390a1600060076000838152602001908152602001600020600a01549050600081346116b991906125d4565b905060076000848152602001908152602001600020600d0160009054906101000a900473ffffffffffffffffffffffffffffffffffffffff1673ffffffffffffffffffffffffffffffffffffffff166108fc829081150290604051600060405180830381858888f19350505050158015611737573d6000803e3d6000fd5b50505050505050565b600073ffffffffffffffffffffffffffffffffffffffff168173ffffffffffffffffffffffffffffffffffffffff160361177957600080fd5b61178382826117eb565b1561178d57600080fd5b60018260000160008373ffffffffffffffffffffffffffffffffffffffff1673ffffffffffffffffffffffffffffffffffffffff16815260200190815260200160002060006101000a81548160ff0219169083151502179055505050565b60008073ffffffffffffffffffffffffffffffffffffffff168273ffffffffffffffffffffffffffffffffffffffff160361182557600080fd5b8260000160008373ffffffffffffffffffffffffffffffffffffffff1673ffffffffffffffffffffffffffffffffffffffff16815260200190815260200160002060009054906101000a900460ff16905092915050565b611887600082611b04565b8073ffffffffffffffffffffffffffffffffffffffff167f9d17ec7e57a5118cf27abf33370bcc6f007c27a9706ab4cc473a76fe552447d260405160405180910390a250565b6118d8600282611740565b8073ffffffffffffffffffffffffffffffffffffffff167f561138658ca49a8540dc70dcfe64c9026c1c5b9344642242dd6562970f9c127860405160405180910390a250565b611929600382611b04565b8073ffffffffffffffffffffffffffffffffffffffff167f126174f6cf49c81cdb4a9214c6b8f037bef55b4ec31e4fc776cea2a1c8a88d5960405160405180910390a250565b61197a600182611740565b8073ffffffffffffffffffffffffffffffffffffffff167fa58cff07db0adda3ab7a40bd2f18ab57210bf38391a52ffd2e8eee6b8bdec71a60405160405180910390a250565b6119cb600382611740565b8073ffffffffffffffffffffffffffffffffffffffff167fddbf200aa634dc3fb81cfd68583dd1040d1c751d335e1d86b631bde3e977fea860405160405180910390a250565b611a1c600182611b04565b8073ffffffffffffffffffffffffffffffffffffffff167f053a4badf166f01c4b02f6bcb71d2d67734470d0866282e291e73001aa25c76960405160405180910390a250565b611a6d600082611740565b8073ffffffffffffffffffffffffffffffffffffffff167f5a4264410853372bdd7255ebc9624cb523fc039cd6f9f1855165194738125f6360405160405180910390a250565b611abe600282611b04565b8073ffffffffffffffffffffffffffffffffffffffff167f2fed5abf6a80d6dfe30b4895481b2fc5d7dce5f8f7b931832f4a2947d5040c7f60405160405180910390a250565b600073ffffffffffffffffffffffffffffffffffffffff168173ffffffffffffffffffffffffffffffffffffffff1603611b3d57600080fd5b611b4782826117eb565b611b5057600080fd5b60008260000160008373ffffffffffffffffffffffffffffffffffffffff1673ffffffffffffffffffffffffffffffffffffffff16815260200190815260200160002060006101000a81548160ff0219169083151502179055505050565b6000604051905090565b600080fd5b600080fd5b6000819050919050565b611bd581611bc2565b8114611be057600080fd5b50565b600081359050611bf281611bcc565b92915050565b600060208284031215611c0e57611c0d611bb8565b5b6000611c1c84828501611be3565b91505092915050565b600081519050919050565b600082825260208201905092915050565b60005b83811015611c5f578082015181840152602081019050611c44565b60008484015250505050565b6000601f19601f8301169050919050565b6000611c8782611c25565b611c918185611c30565b9350611ca1818560208601611c41565b611caa81611c6b565b840191505092915050565b611cbe81611bc2565b82525050565b7f4e487b7100000000000000000000000000000000000000000000000000000000600052602160045260246000fd5b60078110611d0457611d03611cc4565b5b50565b6000819050611d1582611cf3565b919050565b6000611d2582611d07565b9050919050565b611d3581611d1a565b82525050565b600073ffffffffffffffffffffffffffffffffffffffff82169050919050565b6000611d6682611d3b565b9050919050565b611d7681611d5b565b82525050565b600060e0820190508181036000830152611d96818a611c7c565b90508181036020830152611daa8189611c7c565b9050611db96040830188611cb5565b611dc66060830187611d2c565b611dd36080830186611d6d565b611de060a0830185611d6d565b611ded60c0830184611d6d565b98975050505050505050565b60008060408385031215611e1057611e0f611bb8565b5b6000611e1e85828601611be3565b9250506020611e2f85828601611be3565b9150509250929050565b611e4281611d5b565b8114611e4d57600080fd5b50565b600081359050611e5f81611e39565b92915050565b600060208284031215611e7b57611e7a611bb8565b5b6000611e8984828501611e50565b91505092915050565b60008115159050919050565b611ea781611e92565b82525050565b6000602082019050611ec26000830184611e9e565b92915050565b6000606082019050611edd6000830186611cb5565b611eea6020830185611cb5565b611ef76040830184611cb5565b949350505050565b600060e082019050611f14600083018a611cb5565b611f216020830189611cb5565b611f2e6040830188611d6d565b611f3b6060830187611d6d565b8181036080830152611f4d8186611c7c565b905081810360a0830152611f618185611c7c565b905081810360c0830152611f758184611c7c565b905098975050505050505050565b600080fd5b600080fd5b7f4e487b7100000000000000000000000000000000000000000000000000000000600052604160045260246000fd5b611fc582611c6b565b810181811067ffffffffffffffff82111715611fe457611fe3611f8d565b5b80604052505050565b6000611ff7611bae565b90506120038282611fbc565b919050565b600067ffffffffffffffff82111561202357612022611f8d565b5b61202c82611c6b565b9050602081019050919050565b82818337600083830152505050565b600061205b61205684612008565b611fed565b90508281526020810184848401111561207757612076611f88565b5b612082848285612039565b509392505050565b600082601f83011261209f5761209e611f83565b5b81356120af848260208601612048565b91505092915050565b600080600080600080600060e0888a0312156120d7576120d6611bb8565b5b60006120e58a828b01611be3565b97505060206120f68a828b01611e50565b965050604088013567ffffffffffffffff81111561211757612116611bbd565b5b6121238a828b0161208a565b955050606088013567ffffffffffffffff81111561214457612143611bbd565b5b6121508a828b0161208a565b945050608088013567ffffffffffffffff81111561217157612170611bbd565b5b61217d8a828b0161208a565b93505060a088013567ffffffffffffffff81111561219e5761219d611bbd565b5b6121aa8a828b0161208a565b92505060c088013567ffffffffffffffff8111156121cb576121ca611bbd565b5b6121d78a828b0161208a565b91505092959891949750929550565b7f4e487b7100000000000000000000000000000000000000000000000000000000600052602260045260246000fd5b6000600282049050600182168061222d57607f821691505b6020821081036122405761223f6121e6565b5b50919050565b600060208201905061225b6000830184611cb5565b92915050565b7f4e487b7100000000000000000000000000000000000000000000000000000000600052601160045260246000fd5b600061229b82611bc2565b91506122a683611bc2565b92508282019050808211156122be576122bd612261565b5b92915050565b60008190508160005260206000209050919050565b60006020601f8301049050919050565b600082821b905092915050565b6000600883026123267fffffffffffffffffffffffffffffffffffffffffffffffffffffffffffffffff826122e9565b61233086836122e9565b95508019841693508086168417925050509392505050565b6000819050919050565b600061236d61236861236384611bc2565b612348565b611bc2565b9050919050565b6000819050919050565b61238783612352565b61239b61239382612374565b8484546122f6565b825550505050565b600090565b6123b06123a3565b6123bb81848461237e565b505050565b5b818110156123df576123d46000826123a8565b6001810190506123c1565b5050565b601f821115612424576123f5816122c4565b6123fe846122d9565b8101602085101561240d578190505b612421612419856122d9565b8301826123c0565b50505b505050565b600082821c905092915050565b600061244760001984600802612429565b1980831691505092915050565b60006124608383612436565b9150826002028217905092915050565b61247982611c25565b67ffffffffffffffff81111561249257612491611f8d565b5b61249c8254612215565b6124a78282856123e3565b600060209050601f8311600181146124da57600084156124c8578287015190505b6124d28582612454565b86555061253a565b601f1984166124e8866122c4565b60005b82811015612510578489015182556001820191506020850194506020810190506124eb565b8683101561252d5784890151612529601f891682612436565b8355505b6001600288020188555050505b505050505050565b7f4d616e756661637475726572732063616e2073686970206f6e6c79206d65646960008201527f63696e6573206279207468656d00000000000000000000000000000000000000602082015250565b600061259e602d83611c30565b91506125a982612542565b604082019050919050565b600060208201905081810360008301526125cd81612591565b9050919050565b60006125df82611bc2565b91506125ea83611bc2565b925082820390508181111561260257612601612261565b5b9291505056fea2646970667358221220cb9f8c30900fa3d7f1c01f170fa313bf5232bf5931cc293f5124cb131d72e4ae64736f6c63430008100033",
  "immutableReferences": {},
  "source": "// SPDX-License-Identifier: MIT\r\npragma solidity >=0.4.22 <0.9.0;\r\n\r\nimport \"../medicineaccesscontrol/Roles.sol\";\r\nimport \"../medicineaccesscontrol/DistributorRole.sol\";\r\nimport \"../medicineaccesscontrol/ManufacturerRole.sol\";\r\nimport \"../medicineaccesscontrol/PatientRole.sol\";\r\nimport \"../medicineaccesscontrol/PharmacistRole.sol\";\r\nimport \"../medicinecore/Ownable.sol\";\r\n\r\n// Define a contract 'Supplychain'\r\n\r\ncontract SupplyChain is PharmacistRole, PatientRole, ManufacturerRole, DistributorRole {\r\n\r\n  // Define 'owner'\r\n  address owner;\r\n\r\n  // Define a variable called 'upc' for Universal Product Code (UPC)\r\n  uint  upc;\r\n\r\n  // Define a variable called 'sku' for Stock Keeping Unit (SKU)\r\n  uint  sku;\r\n\r\n  // Define a public mapping 'medicines' that maps the UPC to an Medicine.\r\n  mapping (uint => Medicine) medicines;\r\n\r\n  // Define a public mapping 'medicinesHistory' that maps the UPC to an array of TxHash, \r\n  // that track its journey through the supply chain -- to be sent from DApp.\r\n  mapping (uint => string[]) medicinesHistory;\r\n  \r\n  // Define enum 'State' with the following values:\r\n  enum State \r\n  { \r\n    Made,       // 0\r\n    Packed,     // 1\r\n    ForSale,    // 2\r\n    Sold,       // 3\r\n    Shipped,    // 4\r\n    Received,   // 5\r\n    Purchased   // 6\r\n  }\r\n\r\n  State constant defaultState = State.Made;\r\n\r\n  // Define a struct 'Medicine' with the following fields:\r\n  struct Medicine {\r\n    uint    sku;  // Stock Keeping Unit (SKU)\r\n    uint    upc; // Universal Product Code (UPC), generated by the Manufacturer, goes on the package, can be verified by the Patient\r\n    address ownerID;  // Metamask-Ethereum address of the current owner as the medicine moves through 8 stages\r\n    address originManufacturerID; // Metamask-Ethereum address of the Manufacturer\r\n    string  originFactoryName; // Manufacturer Name\r\n    string  originFactoryInformation;  // Manufacturer Information\r\n    string  originFactoryLatitude; // Factory Latitude\r\n    string  originFactoryLongitude;  // Factory Longitude\r\n    uint    medicineID;  // Product ID potentially a combination of upc + sku\r\n    string  medicineNotes; // Product Notes\r\n    uint    medicinePrice; // Product Price\r\n    State   medicineState;  // Product State as represented in the enum above\r\n    address distributorID;  // Metamask-Ethereum address of the Distributor\r\n    address pharmacistID; // Metamask-Ethereum address of the Pharmacist\r\n    address patientID; // Metamask-Ethereum address of the Patient\r\n  }\r\n\r\n  // Define 8 events with the same 7 state values and accept 'upc' as input argument\r\n  event Made(uint upc);\r\n  event Packed(uint upc);\r\n  event ForSale(uint upc);\r\n  event Sold(uint upc);\r\n  event Shipped(uint upc);\r\n  event Received(uint upc);\r\n  event Purchased(uint upc);\r\n\r\n  // Define a modifer that checks to see if msg.sender == owner of the contract\r\n  modifier onlyOwner() {\r\n    require(msg.sender == owner);\r\n    _;\r\n  }\r\n\r\n  // Define a modifer that verifies the Caller\r\n  modifier verifyCaller (address _address) {\r\n    require(msg.sender == _address); \r\n    _;\r\n  }\r\n\r\n  // Define a modifier that checks if the paid amount is sufficient to cover the price\r\n  modifier paidEnough(uint _price) { \r\n    require(msg.value >= _price); \r\n    _;\r\n  }\r\n  \r\n  // Define a modifier that checks the price and refunds the remaining balance\r\n  modifier checkValue(uint _upc) {\r\n    _;\r\n    uint _price = medicines[_upc].medicinePrice;\r\n    uint amountToReturn = msg.value - _price;\r\n    payable(medicines[_upc].patientID).transfer(amountToReturn);\r\n  }\r\n\r\n  // Define a modifier that checks if an medicine.state of a upc is Made\r\n  modifier made(uint _upc) {\r\n    require(medicines[_upc].medicineState == State.Made);\r\n    _;\r\n  }\r\n  \r\n  // Define a modifier that checks if an medicine.state of a upc is Packed\r\n  modifier packed(uint _upc) {\r\n    require(medicines[_upc].medicineState == State.Packed);\r\n\r\n    _;\r\n  }\r\n\r\n  // Define a modifier that checks if an medicine.state of a upc is ForSale\r\n  modifier forSale(uint _upc) {\r\n    require(medicines[_upc].medicineState == State.ForSale);\r\n\r\n    _;\r\n  }\r\n\r\n  // Define a modifier that checks if an medicine.state of a upc is Sold\r\n  modifier sold(uint _upc) {\r\n    require(medicines[_upc].medicineState == State.Sold);\r\n\r\n    _;\r\n  }\r\n  \r\n  // Define a modifier that checks if an medicine.state of a upc is Shipped\r\n  modifier shipped(uint _upc) {\r\n    require(medicines[_upc].medicineState == State.Shipped);\r\n\r\n    _;\r\n  }\r\n\r\n  // Define a modifier that checks if an medicine.state of a upc is Received\r\n  modifier received(uint _upc) {\r\n    require(medicines[_upc].medicineState == State.Received);\r\n\r\n    _;\r\n  }\r\n\r\n  // Define a modifier that checks if an medicine.state of a upc is Purchased\r\n  modifier purchased(uint _upc) {\r\n    require(medicines[_upc].medicineState == State.Purchased);\r\n    _;\r\n  }\r\n\r\n  // In the constructor set 'owner' to the address that instantiated the contract\r\n  // and set 'sku' to 1\r\n  // and set 'upc' to 1\r\n  constructor() payable {\r\n    owner = msg.sender;\r\n    sku = 0;\r\n    upc = 0;\r\n  }\r\n\r\n  // Define a function 'kill' if required\r\n  function kill() public {\r\n    if (msg.sender == owner) {\r\n      selfdestruct(payable(owner));\r\n    }\r\n  }\r\n\r\n  // Define a function 'makeMedicine' that allows a manufacturer to mark a medicine 'Made'\r\n  function makeMedicine(uint _upc, address _originManufacturerID, string memory _originFactoryName, string memory _originFactoryInformation, string memory  _originFactoryLatitude, string memory _originFactoryLongitude, string memory _medicineNotes) public\r\n  \r\n  onlyManufacturer\r\n\r\n  {\r\n    // Add the new medicine as part of medicines\r\n    Medicine memory temp_medicine = Medicine({\r\n      sku:sku + 1,\r\n      upc:_upc,\r\n      ownerID:_originManufacturerID,\r\n      originManufacturerID:_originManufacturerID,\r\n      originFactoryName:_originFactoryName,\r\n      originFactoryInformation:_originFactoryInformation,\r\n      originFactoryLatitude:_originFactoryLatitude,\r\n      originFactoryLongitude:_originFactoryLongitude,\r\n      medicineID:sku+_upc,\r\n      medicineNotes:_medicineNotes,\r\n      medicineState:State.Made,\r\n      medicinePrice:0,\r\n      distributorID:address(0),\r\n      pharmacistID:address(0),\r\n      patientID: address(0)\r\n\r\n      });\r\n    medicines[_upc] = temp_medicine;\r\n    medicines[_upc].medicineState = State.Made;\r\n\r\n// uint    sku;  // Stock Keeping Unit (SKU)\r\n//     uint    upc; // Universal Product Code (UPC), generated by the Manufacturer, goes on the package, can be verified by the Patient\r\n//     address ownerID;  // Metamask-Ethereum address of the current owner as the medicine moves through 8 stages\r\n//     address originManufacturerID; // Metamask-Ethereum address of the Manufacturer\r\n//     string  originFactoryName; // Manufacturer Name\r\n//     string  originFactoryInformation;  // Manufacturer Information\r\n//     string  originFactoryLatitude; // Factory Latitude\r\n//     string  originFactoryLongitude;  // Factory Longitude\r\n//     uint    medicineID;  // Product ID potentially a combination of upc + sku\r\n//     string  medicineNotes; // Product Notes\r\n//     uint    medicinePrice; // Product Price\r\n//     State   medicineState;  // Product State as represented in the enum above\r\n//     address distributorID;  // Metamask-Ethereum address of the Distributor\r\n//     address pharmacistID; // Metamask-Ethereum address of the Pharmacist\r\n//     address patientID; // Metamask-Ethereum address of the Patient\r\n\r\n\r\n\r\n\r\n    // Increment sku\r\n    sku = sku + 1;\r\n    // Emit the appropriate event\r\n\r\n    emit Made(_upc);\r\n  }\r\n\r\n\r\n  // Define a function 'packMedicine' that allows a manufacturer to mark an medicine 'Packed'\r\n  function packMedicine(uint _upc) public \r\n  // Call modifier to check if upc has passed previous supply chain stage\r\n  made(_upc)\r\n  // Call modifier to verify caller of this function\r\n  onlyManufacturer\r\n  {\r\n    // Update the appropriate fields\r\n    medicines[_upc].medicineState = State.Packed;\r\n\r\n    // Emit the appropriate event\r\n    emit Packed(_upc);\r\n  }\r\n\r\n  // Define a function 'sellMedicine' that allows a manufacturer to mark an medicine 'ForSale'\r\n  function sellMedicine(uint _upc, uint _price) public \r\n  // Call modifier to check if upc has passed previous supply chain stage\r\n  packed(_upc)\r\n  // Call modifier to verify caller of this function\r\n  onlyManufacturer\r\n\r\n  {\r\n    // Update the appropriate fields\r\n    medicines[_upc].medicineState = State.ForSale;\r\n    medicines[_upc].medicinePrice = _price;\r\n    // Emit the appropriate event\r\n    emit ForSale(_upc);\r\n  }\r\n\r\n  // Define a function 'buyMedicine' that allows the disributor to mark an medicine 'Sold'\r\n  // Use the above defined modifiers to check if the medicine is available for sale, if the buyer has paid enough, \r\n  // and any excess ether sent is refunded back to the buyer\r\n  function buyMedicine(uint _upc) public payable \r\n    // Call modifier to check if upc has passed previous supply chain stage\r\n    forSale(_upc)\r\n    // Call modifer to check if buyer has paid enough\r\n    paidEnough(medicines[_upc].medicinePrice)\r\n    // Call modifer to send any excess ether back to buyer\r\n    checkValue(_upc)\r\n    //limit to distributers , no end consumers are allowed to buy from factory.\r\n    onlyDistributor\r\n    {\r\n\r\n      // Update the appropriate fields - ownerID, distributorID, medicineState\r\n      medicines[_upc].medicineState = State.Sold;\r\n      // Transfer money to manufacturer\r\n      payable(medicines[_upc].originManufacturerID).transfer(medicines[_upc].medicinePrice);\r\n      // emit the appropriate event\r\n      emit Sold(_upc);\r\n    }\r\n\r\n  // Define a function 'shipMedicine' that allows the distributor to mark an medicine 'Shipped'\r\n  // Use the above modifers to check if the medicine is sold\r\n  function shipMedicine(uint _upc) public \r\n    // Call modifier to check if upc has passed previous supply chain stage\r\n    sold(_upc)\r\n    // Call modifier to verify caller of this function\r\n    onlyManufacturer\r\n    {\r\n      //check if the factory is the one making this medicine.\r\n      require(medicines[_upc].originManufacturerID == msg.sender,\"Manufacturers can ship only medicines by them\");\r\n      // Update the appropriate fields\r\n      medicines[_upc].medicineState = State.Shipped;\r\n      // Emit the appropriate event\r\n      emit Shipped(_upc);\r\n    }\r\n\r\n  // Define a function 'receiveMedicine' that allows the pharmacist to mark an medicine 'Received'\r\n  // Use the above modifiers to check if the medicine is shipped\r\n  function receiveMedicine(uint _upc) public \r\n    // Call modifier to check if upc has passed previous supply chain stage\r\n    shipped(_upc)\r\n    // Access Control List enforced by calling Smart Contract / DApp\r\n    {\r\n    // Update the appropriate fields - ownerID, pharmacistID, medicineState\r\n    medicines[_upc].medicineState = State.Received;\r\n\r\n    // Emit the appropriate event\r\n    emit Received(_upc);\r\n  }\r\n\r\n  // Define a function 'purchaseMedicine' that allows the patient to mark an medicine 'Purchased'\r\n  // Use the above modifiers to check if the medicine is received\r\n  function purchaseMedicine(uint _upc) public \r\n    // Call modifier to check if upc has passed previous supply chain stage\r\n    received(_upc)\r\n    // Access Control List enforced by calling Smart Contract / DApp\r\n    onlyPatient\r\n    {\r\n      // Up    medicines[_upc].medicineState = State.Shipped;\r\n      medicines[_upc].medicineState = State.Purchased;\r\n\r\n      // Emit the appropriate event\r\n      emit Purchased(_upc);\r\n    }\r\n\r\n  // Define a function 'fetchMedicineBufferOne' that fetches the data\r\n  function fetchMedicineBufferOne(uint _upc) public view returns \r\n  (\r\n    uint    medicineSKU,\r\n    uint    medicineUPC,\r\n    address ownerID,\r\n    address originManufacturerID,\r\n    string memory originFactoryName,\r\n    string memory originFactoryInformation,\r\n    string memory originFactoryLatitude\r\n    // string  originFactoryLongitude\r\n    ) \r\n  {\r\n  // Assign values to the 7 parameters\r\n  \r\n\r\n  return \r\n  (\r\n    medicines[_upc].sku,\r\n    medicines[_upc].upc,\r\n    medicines[_upc].ownerID,\r\n    medicines[_upc].originManufacturerID,\r\n    medicines[_upc].originFactoryName,\r\n    medicines[_upc].originFactoryInformation,\r\n    medicines[_upc].originFactoryLatitude\r\n    // medicines[_upc].originFactoryLongitude\r\n    );\r\n}\r\n\r\n  // Define a function 'fetchMedicineBufferTwo' that fetches the data\r\n  function fetchMedicineBufferTwo(uint _upc) public view returns \r\n  (\r\n    // uint    medicineSKU,\r\n    // uint    medicineUPC,\r\n    // uint    medicineID,\r\n    string memory originFactoryLongitude,\r\n    string memory medicineNotes,\r\n    uint    medicinePrice,\r\n    State    medicineState,\r\n    address distributorID,\r\n    address pharmacistID,\r\n    address patientID\r\n    ) \r\n  {\r\n    // Assign values to the 7 parameters\r\n\r\n    \r\n    return \r\n    (\r\n      // medicines[_upc].sku,\r\n      // medicines[_upc].upc,\r\n      // medicines[_upc].medicineID,\r\n      medicines[_upc].originFactoryLongitude,\r\n      medicines[_upc].medicineNotes,\r\n      medicines[_upc].medicinePrice,\r\n      medicines[_upc].medicineState,\r\n      medicines[_upc].distributorID,\r\n      medicines[_upc].pharmacistID,\r\n      medicines[_upc].patientID\r\n      );\r\n  }\r\n\r\n  // Define a function 'fetchMedicineBufferThree' that fetches the data\r\n  function fetchMedicineBufferThree(uint _upc) public view returns \r\n  (\r\n    uint    medicineSKU,\r\n    uint    medicineUPC,\r\n    uint    medicineID\r\n    ) \r\n  {\r\n    // Assign values to the 3 parameters\r\n\r\n    \r\n    return \r\n    (\r\n      medicines[_upc].sku,\r\n      medicines[_upc].upc,\r\n      medicines[_upc].medicineID\r\n      \r\n      );\r\n  }\r\n\r\n\r\n}\r\n",
  "sourcePath": "D:\\Amber SE\\Medical DApp\\DApp\\contracts\\medicineBase\\Supplychain.sol",
  "compiler": {
    "name": "solc",
    "version": "0.8.16+commit.07a7930e.Emscripten.clang"
  },
  "schemaVersion": "3.4.9",
  "updatedAt": "2022-08-17T14:50:51.388Z",
  "networkType": "ethereum",
  "devdoc": {
    "kind": "dev",
    "methods": {},
    "version": 1
  },
  "userdoc": {
    "kind": "user",
    "methods": {},
    "version": 1
  }
}